:020000040800F2
:1000000000200020312D00089528000897280008BE
:1000100000000000000000000000000000000000E0
:100020000000000000000000000000009928000807
:1000300000000000000000009B2800089D28000828
:10004000812D0008812D0008812D0008812D0008D8
:10005000812D0008812D0008812D0008812D0008C8
:10006000812D0008812D0008812D0008812D0008B8
:10007000812D0008812D000800000000812D00085E
:1000800000000000812D00080000000000000000BA
:10009000812D000800000000812D0008812D00083E
:1000A000812D0008812D0008812D0008812D000878
:1000B000812D0008812D0008812D0008A528000849
:1000C00010B5064C2378002B07D1054B002B02D02E
:1000D000044800E000BF0123237010BDC4010020CC
:1000E00000000000DC2D0008044B10B5002B03D0ED
:1000F0000349044800E000BF10BDC04600000000F6
:10010000C8010020DC2D000802B4714649084900EE
:10011000095C49008E4402BC7047C04603B4714676
:10012000490840004900095A49008E4403BC704701
:10013000002243088B4274D303098B425FD3030A26
:100140008B4244D3030B8B4228D3030C8B420DD339
:10015000FF22090212BA030C8B4202D312120902C7
:1001600065D0030B8B4219D300E0090AC30B8B4205
:1001700001D3CB03C01A5241830B8B4201D38B03B3
:10018000C01A5241430B8B4201D34B03C01A524158
:10019000030B8B4201D30B03C01A5241C30A8B429B
:1001A00001D3CB02C01A5241830A8B4201D38B0286
:1001B000C01A5241430A8B4201D34B02C01A52412A
:1001C000030A8B4201D30B02C01A5241CDD2C3099C
:1001D0008B4201D3CB01C01A524183098B4201D318
:1001E0008B01C01A524143098B4201D34B01C01A03
:1001F000524103098B4201D30B01C01A5241C3087B
:100200008B4201D3CB00C01A524183088B4201D3E9
:100210008B00C01A524143088B4201D34B00C01AD5
:100220005241411A00D20146524110467047FFE741
:1002300001B5002000F006F802BDC0460029F7D045
:1002400076E770477047C046FA210A4B70B58900BF
:1002500005001868FFF76CFF00F06AF80400012041
:10026000002C05D102382200290000F027F82000D8
:1002700070BDC046100100204023084A10B5116827
:1002800000200B431360FFF7DFFF041E03D102F0D1
:10029000F3FA200010BD0124FBE7C0460020024015
:1002A000024A1368013313607047C04604040020FB
:1002B000014B18687047C0460404002070B58901DE
:1002C000002814DA0F23C0B20340083B114A9B08F0
:1002D0009B009B18032210409040FC3215001140F7
:1002E00085408140DC69AC432143D96170BD032561
:1002F00083082840A840FC352E00074A9B009B1825
:10030000C02286402940814092009C58B44321433A
:100310009950EBE700ED00E000E100E01F231840FA
:100320001E3B8340014A13607047C04600E100E075
:10033000094A431E012093420DD8C021074A0848AC
:100340005360036A09061B021B0A0B430362002069
:100350000723906013607047FFFFFF0010E000E08C
:1003600000ED00E0F0B5534A0B688218541EA2411C
:1003700085B00193002305320392019ADA4001D13E
:1003800005B0F0BD01259D40019A2A40009200D1A0
:100390008DE04A6894461022644694432200013C52
:1003A000022A1FD107240F271C40A400A740DA0807
:1003B00092008218166ABE430F69A7403E43166238
:1003C00003245E00B4408268A243CC68B440224358
:1003D00082606246D206D20F9A404468AC43224300
:1003E000426001E0012CEBD9032634005D00AC40F3
:1003F0006246E4433240AA40076827403A4302601D
:10040000C26814408A68AA4014436246C460D2009D
:100410004DD50125284C0F27626B2A431D0035401E
:10042000AD00AF406263254A9C08A400A418A268EE
:10043000BA43A0270292FF050022B8420CD0204FF9
:100440000132B84208D01F4F0132B84204D01E4FCB
:100450003200B84200D0039AAA406746029D2A4360
:10046000A2601A4A009C1668009DE4433543FF03CE
:1004700001D435002540674615605668009D354318
:10048000BF0301D435002540674655609668009D3E
:100490003543FF0201D43500254067469560D56895
:1004A000009E2E43BF0201D425402E00D6600133AA
:1004B00063E7C04600E4FFAF0010024000000140C7
:1004C0000004005000080050000C005000040140DF
:1004D000002A01D0816170478162FCE7436959407D
:1004E00041617047F0B5040087B0012600282BD089
:1004F000314D435DDBB2002B04D18A22920083543C
:1005000002F070FA03232068635501F04DF80023D0
:100510000126180061688B4219D300231800994204
:1005200026D823006A46103343CB43C203CB03C211
:10053000E3686168A268206801F040F80123061EA4
:1005400029D002221E006255300007B0F0BD5A01CA
:10055000A218170029373E70013F3B70D386F87010
:100560009063D0639A1C520101331051DBB2D2E781
:100570005A01A21816002A36FF363070FC32013EAE
:100580003370F070D06310641A000A3252010133E4
:100590001051DBB2C3E7621DD0776355E369012BCD
:1005A00002D1200000F08BFB236A012BCCD120006C
:1005B00000F076FBC8E7C0462902000070B58A2526
:1005C000AD00435D04000220012B09D00123206807
:1005D000635501F046FA206800F0DCFF002060550A
:1005E00070BD70B58A25AD00435D04000220012B6B
:1005F00008D001236355631DD977206801F02AFADA
:100600000020605570BD70B50D000400072049B290
:1006100028404001002921DA010001262831201854
:1006200061182930067007200A614A7805400D706C
:10063000CB70002A00D0CD81022B01D100230B7199
:100640008A25AD00635D0220012B06D001232068BE
:10065000635500F0C9FF0020605570BD01002018EF
:100660002931FF312A306118FF300026DAE70A000D
:10067000072349B2134070B55B010400002917DA63
:1006800019002831C3184118012029331870072395
:100690008A251A400A70AD00635D0220012B06D046
:1006A00001232068635501F0E1F80020605570BD1A
:1006B0001900C3182931FF312A334118FF330020B4
:1006C000E4E7F8B5072421404C0106193700FC3750
:1006D0007B64330000252A332936FF33FF36BD649F
:1006E0003A641D70317021002931FF3141180068D2
:1006F00001F0DAF92800F8BD072319400A31490151
:1007000040184068704770B5072421404D014419D6
:10071000236400262300E26301226664293328341F
:100720001A702170290028314118006801F0BCF9C5
:10073000300070BDF7B50400006801F09AF90304B9
:1007400000D51DE2206801F094F943050CD523681B
:10075000A6490633DA8F20000A40DA8702F07FF9D3
:1007600000212000FFF73DFF206801F082F94304DB
:1007700005D523689E490633DA8F0A40DA87206858
:1007800001F077F9830405D523689A490633DA8F97
:100790000A40DA87206801F06CF9C3041CD50421F3
:1007A00023680233DA8F8A43DA87DA8F49188A435B
:1007B000DA8798239B00E25C012A04D10021200003
:1007C000E15400F090FA200002F068F923688A49A9
:1007D0000633DA8F0A40DA87206801F04AF9030508
:1007E00015D508222068854D831CD98F0A43DA87E6
:1007F000811DCA8F2A40CA870422D98F0A43DA870B
:1008000001F037F9C30402D4200002F035F9206862
:1008100001F02FF98025284220D0982023688000FD
:10082000991DCA8FAA43CA87225C002A00D0A9E179
:1008300004219A1CD58F54332943D1870821D58FA1
:100840002943D18701213C2221541B8820009B0889
:10085000134099229200A35000F045FA206801F05D
:1008600008F9830508D5236865490633DA8F200027
:100870000A40DA8702F0ECF8206801F0FAF8C305C4
:1008800005D523685F490633DA8F0A40DA87F7BD5A
:100890000F26D18F89B20E4000D0C5E01023194039
:1008A000038800292FD1584A134080221202134393
:1008B0000380030050331A88230028331B78DB00A1
:1008C000C018524B8018C0180388E26B9B059B0D23
:1008D0006364D318E363200002F0B0F8631DDA7F8D
:1008E000002A09D0206C002806D18022D97F11432C
:1008F00022684C321180D8772068821DD38F1BB2BA
:10090000002BC5DB1EE79BB21A0521D5030050332F
:100910001A8894235B00E35C8C21DB00C3189B18CE
:100920003B4A89009B1822001B8829329B059B0D9E
:10093000FF32D3616118D28801F092F922683549FB
:10094000138820000B403B43138002F063F8D3E789
:100950001BB2002BD0DA03882E4A250013403B43FC
:100960000380030050331A8894235B00E35C29352D
:10097000DB00C3189B18264AFF359B181B889B0574
:100980009B0DEB6107D0EA88696901F069F96B6931
:10099000EA699B186B610021200002F044F821688D
:1009A0001B4A0B0050331B888A18D2182B69002B66
:1009B00006D1138818481840184B0343138007E0EA
:1009C0003D2B0FD8012558082B40C01880021080FD
:1009D0000B88134A1A40C0239B015340114A13430A
:1009E0000B8089E75B099B020C48E6E7FFFBFFFFF2
:1009F000FFBFFFFFFFDFFFFFFFEFFFFFFFF7FFFF7F
:100A0000FFFDFFFFFFFEFFFF0F8FFFFF020400004F
:100A1000060400008F0F0000FF83FFFF0080FFFF30
:100A20008FBFFFFF80800000B300C21800931388BF
:100A30009BB200936B4600215B5E002B3BDA138870
:100A400052490B4071013B43611813800B000200B7
:100A50003533FF331D7850320C3B002D55D11B78B8
:100A60001288DB00C3189B18494A9B181D88AD05E6
:100A7000AD0D07D00B00FC31FE331A8E096C2B0034
:100A800001F0EEF87301E0180100FC318A6C01936B
:100A900052198A640A6C4B6C52190A64002B02D0FA
:100AA000C96B8D4262D27301E3182933FF33197881
:100AB000200001F0B8FF009B3B4200D11CE72368F7
:100AC000B20099180A88334876010240802000025B
:100AD000A61902430A8031001A00283108785032E2
:100AE0001288C0001B189B182B4A20009B181A88DC
:100AF000F36B9205920D72649A18336CF263097865
:100B0000002B3AD101F09AFFF6E61B789D004519BB
:100B10002D88DB001288C3189B186D041CD51E4A53
:100B20009B181D88AD05AD0D07D00B00FE335A8E06
:100B3000FC312B00096C01F093F87301E3182933A1
:100B4000FF331A78236892009A18138813490B40D0
:100B500013490B43138095E70D4A9B181D88AD057B
:100B6000AD0DEAD00B00FE339A8EE1E72930FF305D
:100B700001782000FFF7A5FD9DE7FFF7C4FDBBE668
:100B80008027B9E6200001F077FF67E68F0F0000AD
:100B9000060400000F8FFFFF020400008F8FFFFF8D
:100BA000C080000070B50400072563680D40012077
:100BB0009D4220D84BB2002B1EDA6B011900E318BE
:100BC000283129336118187001238A268B700D7023
:100BD000B600A25D02209A420DD0A355206800F015
:100BE000DDFE002D05D18C239B00E118206800F06C
:100BF00044FF0020A05570BD4B0119000022E318EE
:100C000029312A33FF31FF3361181A70DCE770B5E0
:100C10000F2304000A000B40616801208B421DD89D
:100C2000072351B213405B01002918DA1900E318B9
:100C30002831611829331870072300258A261A40A5
:100C40008D700A70B600A35D0220012B06D001232F
:100C50002068A35500F0C0FE2800A55570BD1900FE
:100C6000E3182931FF312A336118FF330020E2E70E
:100C700010B50C060AD50724214049012831411836
:100C8000002A07D10A73CB80002010BD4901293109
:100C9000FF31F4E701220B811B0C0A734B81F3E750
:100CA0009B21012203688900425058331988002093
:100CB0000A431A80022219880A431A80704703687F
:100CC00001009A20012210B5800098240A500020CB
:100CD000A4000855543319880A431A80022219883F
:100CE0000A431A8010BD70470C22184B10B5D96802
:100CF0000A40082A26D00C2A06D0042A1AD11B68DA
:100D0000DB0621D4124810BD8A021248120F825C01
:100D10000902D868890F0131C00304D50E48504339
:100D2000FFF706FAEFE71B68DB0601D50B48F6E78D
:100D30000748F4E780205B6800021B045B0F013367
:100D40009840E0E70448DEE70448DCE70010024092
:100D50000024F400042E000800127A0000093D006F
:100D6000F0B5050087B0002802D1012007B0F0BD22
:100D70000C23BE4CE668E2681E4080235B021A40EA
:100D800001920268D20741D42B689B0700D587E007
:100D90002B68DB0628D5002E00D0D9E023689B0500
:100DA00002D5EB69002BE0D06268B1496B6A0A405A
:100DB0001A43626061682A6A0902090A12060A4334
:100DC000626080225B0B013312029A401300E168DB
:100DD00000200A06A749120F8A5CD340A64A136076
:100DE000FFF732FA0028C1D12B681B0700D5E6E0D7
:100DF0002B685B0700D508E12B689B0600D58DE1C9
:100E0000AB6A002B00D0BCE10020AFE7082E04D075
:100E10000C2E09D1019A002A06D023689B03B3D572
:100E20006B68002BB0D1A0E76A689A4211D12268A2
:100E300013432360FFF73CFA0700802223689202E5
:100E40001342A1D1FFF734FAC01B6428F5D903205F
:100E50008CE7A021C9028A4205D180222168D202F2
:100E60000A432260E3E72168844801402160216849
:100E70000B400593059B824923680B402360002AA1
:100E8000D8D1FFF715FA0700802223689202134297
:100E900000D179E7FFF70CFAC01B6428F4D9D6E734
:100EA000EA68042E04D00C2E25D1019B002B22D100
:100EB00023685B0702D5002A00D156E761682B69D9
:100EC00070481B0201400B430921636023688B4378
:100ED00013432360FFF708FFE368664A1B061B0FF6
:100EE000D35CD840644B18600020FFF7ADF90028B0
:100EF00000D14DE73AE72368002A18D009218B4337
:100F000013432360FFF7D4F9070004222368134238
:100F100007D062682B695B491B020A401343636078
:100F200036E7FFF7C5F9C01B0228EED98FE701228B
:100F300093432360FFF7BCF90700042223681342A0
:100F400000D125E7FFF7B4F9C01B0228F5D97EE7E9
:100F5000EB69002B20D0802322685B0013432360C1
:100F6000FFF7A6F9070080222368920013420DD0F4
:100F700063683F4A13406A6A1343636062682B6A7E
:100F800012021B06120A134363602DE7FFF790F964
:100F9000C01B0228E7D95AE723683B4A1340236065
:100FA000FFF786F90700802223689200134200D1E0
:100FB0001AE7FFF77DF9C01B0228F4D947E76A69F1
:100FC0000123002A10D0226D13432365FFF770F927
:100FD00007000222236D134200D009E7FFF768F9EA
:100FE000C01B0228F5D932E7226D9A432265FFF72C
:100FF0005FF907000222236D134200D1F8E6FFF7E4
:1010000057F9C01B0228F5D921E780230021A26BE4
:101010005B0501911A4204D1A26B1343A363012320
:1010200001938022194F52003B68134208D080225E
:10103000AB68520093422BD1226D134323654CE0E1
:1010400080223B68520013433B60FFF731F9802355
:101050005B00029003933B68039A1342E7D1FFF7CA
:1010600027F9029BC01A6428F5D9F0E60010024067
:10107000FF1FFFFFF42D000810010020FFFFFEFFFF
:10108000FFFFFBFFFFE0FFFFFFFEFFFF00700040E0
:10109000002B16D1236D6C4A13402365236D6B4AD8
:1010A00013402365FFF704F907008022236D9200A7
:1010B00013422AD0FFF7FCF8654BC01B9842F4D9C5
:1010C000C5E6A021C9008B420BD18023216DDB0036
:1010D0000B432365236D1A432265FFF7E9F80700E8
:1010E0000EE0236D584A13402365236D574A134081
:1010F000A4E7FFF7DDF8564BC01B984200D9A6E6DF
:101100008022236D92001342F3D0019B012B00D06B
:1011100072E6A36B4F4A1340A3636DE6A9690123EE
:101120004D4A002918D0A1681943A160616B0B4397
:1011300063638023116A9B010B431362FFF7B8F8C6
:1011400007000222A368134200D059E6FFF7B0F867
:10115000C01B0228F5D97AE6A1689943A160136AF9
:101160003E490B401362FFF7A3F807000222A36871
:10117000134200D144E6FFF79BF8C01B0228F5D9C3
:1011800065E60C2E43D0364A022B2ED123688026EA
:1011900013402360FFF78CF80700B604236833423E
:1011A0001DD1296BEB6AE2680B432E490A401343B9
:1011B0006A6B80251343E360802322685B0413433A
:1011C0002360FFF775F80600AD0423682B4200D0BA
:1011D0001AE6FFF76DF8801B0228F6D937E6FFF70D
:1011E00067F8C01B0228D9D931E62368802513404F
:1011F0002360FFF75DF80600AD0423682B4200D1A1
:1012000002E6FFF755F8801B0228F6D91FE6180002
:10121000012B00D1AAE58022E368E96A52021A4054
:1012200001208A4200D0A1E5F022296B92031A40E6
:101230008A4200D09AE5C02000040340686B181A67
:10124000431E9841C0B291E5FFFEFFFFFFFBFFFF89
:1012500088130000FFFFFFEF00000140FFDFFFFFEA
:10126000FFFFFFFEFFFF02FFF7B5061E019101D150
:101270000120FEBD0122514C0199236813408B428D
:1012800027D3326893072FD4D30735D4012322689C
:1012900001991A40914200D281E03268484C5307CC
:1012A00000D584E0130706D5E26833694549DB00C1
:1012B0000A401343E360FFF717FDE368424A1B0649
:1012C0001B0FD35CD840414B18600020FEF7BCFFD9
:1012D000CFE72368019993430B43236023681340AE
:1012E000019A9A42C4D1CCE7F0203549CB688343B8
:1012F000B0680343CB60C7E7314D72682B68022AA0
:1013000019D19B03B4D50321EB688B431343EB60E6
:10131000FEF7CEFF73680700022B19D10C22EB6891
:101320001340082BB2D0FEF7C3FF294BC01B9842D5
:10133000F4D903209DE7032A02D19B01E3D497E768
:10134000012A02D15B07DED492E79B05DBD48FE74D
:10135000032B0BD10C22EB681340934296D0FEF77F
:10136000A7FF1B4BC01B9842F4D9E2E7012B10D01A
:101370000C22EB68134289D0FEF79AFF144BC01B76
:101380009842F5D9D5E7FEF793FF114BC01B984261
:10139000CFD80C22EB681340042BF4D176E72268F7
:1013A0009A43226022681A4200D061E775E7E36839
:1013B00008490B40F1680B43E36073E700200240EB
:1013C00000100240FFC7FFFFF42D000810010020AD
:1013D00088130000FFF8FFFF8223F7B502681B01A6
:1013E00005001A4247D0802300215F4C5B05A26BA9
:1013F00000911A4204D1A26B1343A363012300930B
:1014000080275A4E7F0033683B426DD06968C02206
:1014100008002368920313401040834203D1A86858
:101420000240934209D0C0230A009B021A409A420C
:1014300003D1236801209B0366D4C022236D92024E
:10144000134062D16968C0230A009B021A409A4285
:1014500007D1236846480340C020800301400B4366
:101460002360236D1A43009B2265012B03D1A36BDC
:10147000404A1340A3632B68DA0706D503203A4994
:10148000CA6C8243E8680243CA649A0706D50C20F6
:101490003549CA6C824328690243CA645A0706D593
:1014A00031493548CA6C024068690243CA641A0768
:1014B00006D52D493148CA6C0240A8690243CA6466
:1014C0005A0606D528492E48CA6C0240286A0243AB
:1014D000CA6400201B0617D5234A2A49D36C0B4047
:1014E000E9690B43D3640FE033683B433360FEF795
:1014F000DFFE019033683B4288D1FEF7D9FE019BA5
:10150000C01A6428F6D90320FEBD11408B4202D0D8
:101510002968890608D4A9680A40934200D191E756
:101520002B681B0500D48DE78022216D206D1203EE
:1015300002432265226D144B14480B400240226581
:101540002365CB0500D47DE7FEF7B2FE80270600B9
:10155000BF00236D3B4200D074E7FEF7A9FE0C4BA1
:10156000801B9842F5D9CEE7001002400070004081
:10157000FFFFCFFFFFFFFFEFFFF3FFFFFFCFFFFFF7
:10158000FFFFFFFBFFFFF3FFFFFFFCFFFFFFF7FF86
:10159000881300000230C38F024A1343C387002020
:1015A0007047C04680BF00000230C38F024A13401C
:1015B000C38700207047C0467F40000084B003937B
:1015C0000123029200220191811CCB87831D5030A0
:1015D000CA87DA870280CB8F02480343CB8710008B
:1015E00004B0704780BF0000F7B501250C780300F8
:1015F000A400041920888F4A0240C8780095032867
:1016000008D8FEF781FD024E054B80208000024382
:10161000002000908848894F024392B222800D78C2
:10162000AC001C1922883A402A43024392B222801D
:101630000D7B0A783C00002D00D06FE04D781E0035
:10164000AC46CD88503601956546002D2BD03488A8
:10165000D2009A1812198024E40012190124019D65
:10166000A54315800A7892009A181488640604D558
:1016700014882740724C274317800A78CC78920050
:101680009B1870491A88012C00D19DE0114020223E
:101690004A40104380B218800098FEBDC020C000B0
:1016A000B5E78020FBE73788D200D218D21901278E
:1016B000654D5219019DBD4315800A783588D200C9
:1016C000624ED218921952190D69002D06D1158853
:1016D0005F4E2E405F4D3543158006E03D2D18D8F6
:1016E0006E082F40F619B60216800A7892009A18F2
:1016F00015886D0404D515882C40574D2C43148053
:101700000A78564992009B181A881140C02292010B
:10171000BEE76D094F4FAD023D43DDE792009A18D9
:1017200015884F4E3D4035431E0015800A785036CF
:101730003588D200D21852198025ED0052190125A2
:101740000F89AF4317800A783688D200D2189219D1
:101750003D4E92194E89AE4316803A4E0A78B446F1
:1017600080264D789200F6019A18002D2ED115880A
:10177000354204D01588384E2540354315800A7807
:10178000384E92009A1815886D0604D515882540A4
:101790003543ADB215800A7892009A1815882C400E
:1017A0002643B6B216800C782C4AA4001C19258852
:1017B0001540C02292016A40024392B222800A7808
:1017C000614692009B181A880A4062E71788264DE6
:1017D000374204D0168826402E43B6B216800A78C7
:1017E00092009A181688760604D51688144F26405B
:1017F0003E4316800A7892009A1816883440254392
:10180000ADB215800A78CC7892009A18012C0DD0D0
:1018100064461588254020246C400443A4B21480FB
:101820000A780E4992009B181A88CDE765461488FD
:101830002C40F2E78F89FFFF8080FFFF8F8FFFFF33
:10184000C0800000BF8FFFFF0404000006040000FA
:10185000FF83FFFF0080FFFF80C000008FBFFFFFFE
:1018600080810000C080FFFF80C0FFFFF0B50D7BCE
:101870004C780B78414A002D23D19B00C318002CD3
:1018800010D01C88640605D51C883D4D2C403D4D6C
:101890002C431C800B783C499B00C01803880B40EC
:1018A0001A4341E01C88640405D51C88344D2C4043
:1018B000364D2C431C800B7835499B00C01803889B
:1018C000EDE780269B002E4D2F4FF601C318002C0C
:1018D0002ED11C88344204D01C882C4E2C4034431A
:1018E0001C800B782B4C9B00C3181E88760604D5F1
:1018F0001E882E402643B6B21E800B789B00C3186C
:101900001E8835402C43A4B21C800C78204DA400C6
:10191000041923882B4013439BB223800B789B0030
:10192000C01803881F403A4392B202800020F0BDE5
:101930001C88344205D01E88174C2E402643B6B270
:101940001E800B789B00C3181E88740604D51E8861
:101950000C4C2E4026431E800B780F4C9B00C31866
:101960001E8835402C43A4B21C800B789B00C31802
:101970001C8827401743BFB21F809CE78080FFFF71
:101980008F8FFFFFC0800000BF8FFFFF80C000006F
:101990008FBFFFFFC080FFFF80C0FFFF10B50B7837
:1019A0004C789B00C018094A0388002C08D00849CD
:1019B000194010234B4013439BB20380002010BDFD
:1019C0000449194080235B01F4E7C0468080FFFF93
:1019D000BF8FFFFF8FBFFFFF0A784B7830B59200B3
:1019E000164C002B16D083181A88520605D51A8873
:1019F000134D2A40134D2A431A800B78124A9B003C
:101A0000C01803881A403023534023439BB20380FD
:101A1000002030BD83181A88520405D51A88084D55
:101A20002A400A4D2A431A800B78094A9B00C018A5
:101A300003881A40C0239B01E6E7C0468080FFFF71
:101A40008F8FFFFFC0800000BF8FFFFF80C00000AE
:101A50008FBFFFFF002902D180234C30038000207C
:101A600070478022583003881202134303800020FD
:101A700070470630C08F80B270470020704730B585
:101A80008024E40012190C0001335B088018002B3D
:101A900000D130BD657822782D021543621A1552A7
:101AA0000234013BF3E70000F8B54E780D008A6977
:101AB0000B690400097B012E59D19A4222D9D21A0E
:101AC000AA6127009EB2503700291FD1EA8833004F
:101AD00069692000FFF7D3FF2B783A88DB00E31811
:101AE0009B18554A9B181E802B78544A9B00E4187B
:101AF00023881A4030235340514A002013439BB29D
:101B00002380F8BD0023AB611300DAE72A78910047
:101B100061180988D200490618D53988A2185218C8
:101B20004849521813806A89330069692000FFF719
:101B3000A6FF6A782B78002A10D19B00E31842494F
:101B40001A880A4041490A431A80CDE73988A21809
:101B500052183949521813802A89E5E7012AC3D15E
:101B60009B00E31838491A880A403949EBE79A4242
:101B700015D9D21AAA612878002914D1220050322E
:101B80001188304AC000A21852181218002B34D104
:101B9000138830491940304B0B43138035E0002344
:101BA000AB611300E7E7002E17D1220050321188F5
:101BB000214AC000A21852181218002B05D1118812
:101BC000244808402449014306E03D2B12D8012057
:101BD0005908184009188902118069782A78002963
:101BE0001FD12100503108881649D2006118091808
:101BF0008A18CBE758098002E4E73D2B0ED8012074
:101C000059080340C918890211802B78134A9B0098
:101C1000E41823881A40C0239B016CE75B099902F2
:101C2000B9E70129F1D1210050310988D2001219F8
:101C3000521804495218B0E702040000BF8FFFFF9A
:101C40008080FFFF060400008F8FFFFFC080000030
:101C500080C00000FF83FFFF0080FFFF8FBFFFFFFA
:101C600070B58025ED0052195C08801826000A0026
:101C7000002E07D1640000190919DB0701D503887C
:101C80000B7070BD551A2D5A013E15702D0A5570F6
:101C90000232EDE7A4239B0070B5C4580433C35847
:101CA000002B0BD08025AD00605DFF2806D0044AD4
:101CB0009B68A25C21009847FF236355002070BDFC
:101CC00001020000432303800048704738000020D1
:101CD00043230380004870477C0000204323038097
:101CE00000487047CC0000200A230380004870475A
:101CF000C000002070B5A426B6000400855900F08D
:101D0000B7FF83239B00E850A3590220002B0AD081
:101D1000832381229B00E9188833E3589200DB6813
:101D2000A8589847002070BDA423F7B59B00C3585E
:101D300006000F0001930220002B17D014254D43FD
:101D40007519E869002812D0A6239B00F3584A01B0
:101D50009B18996BFEF772FA0C1E08D1E9610B0013
:101D60000A003000390000F063FF2000FEBD85232B
:101D70000020019A9B00D050F8E70000A423F7B59B
:101D80009B00C7586B460E00591D00230B706B4615
:101D90000500981D00236024038033781C4029D05F
:101DA000202C42D1F4887078002C1BD05BB2002B21
:101DB0000CDAA5239B00EB58220039009B6898475A
:101DC0003900F288280000F09FFC09E080239B0086
:101DD000F854194B2200FC543900280000F0AAFCEA
:101DE0000020FEBDA5239B00EB5822009B6831001C
:101DF0009847F5E777780A2F0BD00B2F10D0002FDC
:101E000013D19D239B00EB5C032B0ED1022201001A
:101E1000D8E79D239B00EB5C032B06D10122D1E781
:101E20009D239B00EB5C032BDAD02800310000F0EF
:101E300044FC0220D5E7C0460102000070B5040052
:101E40000025812100F0A2FE0121E562200000F0C2
:101E50009DFE2300A426FC33DD6582212000B60010
:101E600000F094FEA3592564AB4208D0A5239B0043
:101E7000E3585B689847A05900F006FFA551002081
:101E800070BDF7B50600037C0400FC36002B3BD187
:101E9000802302229B00812100F066FE0125802321
:101EA000E5629B0029000222200000F05DFEF5653E
:101EB000082303228221200000F056FE01268720FD
:101EC0002664800000F0DCFEA4239B000500E050A7
:101ED0003000002D17D00433E35800271B689847C3
:101EE000852381229B00EF500433EF50237C920026
:101EF0000193BB4211D18023AA589B0031002000DE
:101F000000F0A6FE0198FEBD01254023022281219A
:101F100000F02AFEE5624023C4E74023AA583100BE
:101F2000200000F095FE3800EDE70223002903D0E1
:101F3000A5239B00C150002318007047A4239B00D9
:101F4000C3588220800019508421890000205A50F3
:101F50007047A4239B00C2588C3B0020D15070478F
:101F6000A4239B00C25810B50223002A12D0852159
:101F700089005458013B002C0CD1535084239B0002
:101F8000D3580C39525888390363FF399BB200F09B
:101F90004FFE2300180010BDA4239B00C25810B5AB
:101FA0000224002A09D08121047C8900002C06D15A
:101FB0005258903B012100F04BFE200010BD5258BA
:101FC0004023012100F044FE0024F6E710B502236F
:101FD000002813D0A3239B00C458002C01D0002458
:101FE000C450002902D0A2239B00C1509D2301218F
:101FF0009B00C154027000F065FD0023180010BD65
:102000000223002903D0A3239B00C1500023180002
:10201000704710B500F098FD002010BDA3239B0071
:10202000C35810B5002B01D1022010BD1B68984782
:102030000028F9D1F9E7A32310B59B00C3585B68CA
:102040009847002010BD0000A0239B0070B5C51864
:102050000400280000F01DFB9B2301229B00E2509E
:10206000114BE25A163BE2501033E15C1F230B4048
:10207000012B0FD0002B07D0022B10D07F23200084
:10208000994300F093FD03E02900200000F010F9CF
:10209000002070BD2900200000F03EFAF8E729007A
:1020A000200000F063FAF3E78602000070B5040038
:1020B0001500002930D19B239B00C258032A23D14D
:1020C00002004132FF32D368106983420BD91B1AD8
:1020D000D36082B2984200D99AB22900200000F061
:1020E00039FB002516E0A3239B00E3581B69002B56
:1020F00006D09D229200A25C032A01D120009847BD
:10210000200000F02FFBECE70D00052A02D1E15082
:1021100000F04CFD280070BDA3239B00C35802258E
:102120009B69002BF6D09D229200825C032AF1D19C
:102130009847D6E7F8B50D0004001100002D4BD1EB
:102140009B239B00C358022B3FD1026A466AB242CE
:1021500012D9921B026292B200F0E4FA2B002A001C
:102160002900200000F074FD9E239B00E25C00200B
:10217000012A00D1E054F8BDC76931003800FEF7EC
:102180005DF80D1E0CD1BE420AD89C26B600A3599C
:102190009F4205D20A00200000F0C4FAA551DDE7F5
:1021A000A3239B00E358DB68002B06D09D229200FE
:1021B000A25C032A01D1200098478021200000F072
:1021C000F5FC200000F0DAFACEE704229343CBD1ED
:1021D000802100F0EBFCC7E7A3239B00C35802203B
:1021E0005B69002BC7D09D229200A25C032AC2D15A
:1021F0002900200098470020BDE7002270B50400A8
:102200001100402300F0B0FC230001254026FC33E0
:102210009D645E65802133000022200000F0A4FC54
:102220009D2300219B00A5616662E554083BE150B7
:1022300010336160E1501433E3588B4205D0A3237F
:102240009B00E35820005B689847002070BD017434
:10225000002070479D239B00C15C034A81540422E7
:10226000C25400207047C04675020000024BC25C99
:10227000013BC25400207047750200009D2310B539
:102280009B00C35C032B06D1A3239B00C358DB69CF
:10229000002B00D09847002010BD10B5040080210D
:1022A00000F084FC0021200000F080FC10BD000044
:1022B00060220B7873B5134004000D00202B14D05E
:1022C000402B12D0002B00D095E04878092800D987
:1022D00091E0FDF723FFEE000C0190000401900057
:1022E000810013009000D800A200A3239B00E358B4
:1022F00029009B6820009847002076BD4B88180A6B
:102300000138062877D8FDF7FFFE0425347676508D
:102310005B00A2236A469B00E358207C1B68911D4A
:1023200098476B469E1D318800290CD0EA88002A08
:1023300009D00B1C914200D9131C01009AB2200055
:10234000338000F0E1F9EB88002BD5D1200000F0BC
:1023500009FAD1E7A323227C9B00E358002A06D187
:102360009B6A6A46901D984702234370D9E7DB6A4F
:10237000F7E7D8B205283ED8A2229200237CA258C3
:10238000FDF7C2FE03090B0D0F11526869461800D4
:1023900006319047C5E79268F8E7D268F6E7126918
:1023A000F4E75269F2E79269F0E7237C002B22D12F
:1023B000A3236A469B00E358901D5B6B9847B0E7E8
:1023C000237C002B17D1A3236A469B00E358901D62
:1023D0001B6B98470723C8E78B88002B0BD1CB8852
:1023E000002B08D14E887F2E05D89D25AD00635D5A
:1023F000F1B2032B03D12000FFF74FFF7CE7444BE2
:102400002000E15400F004FC200000F0ABF90223AE
:10241000002E00D1012363556EE789783D4D297068
:102420000129E8D89D239B00E25C022A09D0032AF7
:1024300015D02000FFF731FF29782000FFF7FBFDC2
:102440005AE7002900D181E7012103226160E254AB
:102450002000FFF7E3FD022800D077E7CBE7002953
:1024600006D102222000E2546160FFF7E4FD6DE72F
:102470006168012900D169E7C9B22000FFF7DBFDDF
:1024800029786160E4E7CA88012AB4D19D239B00C2
:10249000E35C002BAFD0022B06D9211D032BAAD160
:1024A000200000F031F927E700232100A360083164
:1024B000F6E79D239B00E35C013B022B9BD8CB8876
:1024C000022B98D1013BE3609F239B00E358002B34
:1024D00001D00323E360210002220C31E0E74B88A6
:1024E000012B00D008E79F229200A3502EE79D23E6
:1024F0009B00E35C013B022B00D97CE74B88012B5E
:1025000000D0F9E69F2300229B00E2501EE7C04660
:1025100076020000E001002060220B7870B51340C5
:1025200004000D00202B03D0402B01D0002B19D12B
:102530009D239B00E35C013B022B13D82B79012BDD
:1025400010D8A3239B00E35829009B6820009847DC
:10255000EB88002B04D1002802D1200000F002F902
:10256000002070BD2000FFF798FEF9E70A780B0005
:10257000602170B50A400400202A17D0402A15D0E7
:10258000002A0FD198885A78C1B2012A26D0002A91
:102590003ED0032A06D19D229200A25C022A2DD0B1
:1025A000032A0CD02000FFF778FE06E0A322920059
:1025B000A2581900926820009047002070BD5A88E8
:1025C000002A07D14A0605D0DB88002B02D1200063
:1025D00000F0ECFA200000F0C5F8EEE79D22920032
:1025E000A25C022A0AD0032ADCD15B88002BE4D14A
:1025F0004B06EFD0200000F0E9FAEBE74B06D1D014
:10260000200000F0D3FA8021200000F0CFFAD4E7B8
:102610009D239B00E35C022B17D0032BC2D10F2319
:1026200014220B405343E31800061ED59B69002B70
:10263000B8D07F250D40013555437F2365190B40E8
:102640001ED12B60022229000BE04B06AAD12100EB
:102650004131FF31030601D52D39FF390023022214
:102660000B60200000F050F8A7E7FC339B6C002BB8
:1026700000D197E77F250D4055434135FF35DCE715
:10268000200000F0B3FA002801D00123D9E7286028
:10269000D8E70B7803704B784370CA788B781202B6
:1026A0009B1843804A790B7912029B188380CA7960
:1026B0008B7912029B18C380704710B504008021EB
:1026C00000F074FA0021200000F070FA10BD002321
:1026D00030B5984201D130BD2B00C45C5D1C002C8C
:1026E000FAD1DBB201335B0013800B7003234B7014
:1026F000013B0578002DEED05A1CCD54D2B20233E6
:102700000130DBB28C54F4E713009B2210B5022495
:10271000920084500A00C3610362002100F088FA2D
:10272000002010BD10B513000A00002100F080FA4F
:10273000002010BD13009B2210B50324920084508A
:102740000200FC32D36413650A00002100F080FA15
:10275000002010BD10B513000A00002100F078FA27
:10276000002010BD9B2304229B0010B5C250002303
:102770001A00190000F05CFA002010BD9B2305220E
:102780009B0010B5C25000231A00190000F060FA37
:10279000002010BD30B59DB0382200210EA800F0F9
:1027A00015FB14220021684600F010FB24220021B2
:1027B00005A800F00BFB1449144A0B6800241A40CA
:1027C00080231B0113430B60222301250E930EA8C7
:1027D000123B1293119514951894FEF7C1FA0F232A
:1027E0002100684600930195029403940494FEF737
:1027F0003BFD40230593802305A8DB040D93FEF7E2
:10280000EBFD1DB030BDC04600700040FFE7FFFF8C
:1028100010B5012488B0FDF72FFDFFF7BBFF142290
:10282000002103A800F0D2FA0221104B1048DA6A06
:102830002243DA62DA6A22400192019ADA6A0A4392
:10284000DA62DB6A00220B4002931E31029BFDF725
:102850003FFE20230393002303A905480593069315
:102860000494FDF77FFD00F053F8FEE700100240EE
:1028700000040050704700000122054B596B0A43C9
:102880005A638022996B52050A439A637047C04687
:10289000001002407047FEE77047704710B5FDF723
:1028A000FFFC10BD10B50248FDF744FF10BDC04647
:1028B000740E00208022104B520019680A431A60DF
:1028C000DA680E490A40DA601A680D490A400121A7
:1028D0001A609A688A439A601A680A490A401A601C
:1028E000DA6809490A40DA6000221A618022074B3F
:1028F00012059A607047C046001002400C40FF88E5
:10290000F6FFF6FEFFFFFBFFFFFF02FF00ED00E01A
:1029100010B5094C002209492000FFF757FB084970
:102920002000FFF76DFB07492000FFF7FEFA2000AB
:10293000FFF76FFB10BDC046080400209001002087
:102940000000002014010020002070470020704784
:1029500010B5064C002206492000FFF7EFFA0549A2
:102960002000FFF7F6FA002010BDC0460804002042
:102970008C0A0020A40600200A00A42110B5084CEF
:102980008900030060587C3941580120002906D194
:1029900019002000FFF7D2FA2000FFF7E1FA10BD7E
:1029A0000804002070B504000B4D01002800FFF75B
:1029B000D0FA2378312B03D120210848FDF78EFD72
:1029C0002378302B03D16C210548FFF7D5FF280071
:1029D000FFF7E2FA002070BD080400200004005058
:1029E00024010020094B026810B59A420DD18023C2
:1029F000074A1B04916B1F200B43936300221100B5
:102A0000FDF75CFC1F20FDF789FC10BD005C004059
:102A1000001002408C2310B59B00C1184033C058F1
:102A2000FFF712FB10BD4B01C318FC331A6C9C233B
:102A300010B59B00C058FFF739FB10BD4B01C31800
:102A4000DA6B9C2310B59B00C058FFF773FB10BDD9
:102A50009C2310B59B00C058FFF710FC10BD70B54B
:102A60009C240500A40001210059FFF7F0FB285920
:102A7000FFF7C3FB70BD00009C2310B504009B0052
:102A8000C058FFF7E7FBA369002B04D00623024AD6
:102A900011690B43136110BD00ED00E0836910B5AF
:102AA0000400002B06D00621054A13698B431361ED
:102AB000FFF770FE9C239B00E058FFF7D7FB10BD8B
:102AC00000ED00E09C2370B505001D489B00C5503B
:102AD0001C4BA62403600823022243600023A400A9
:102AE00028518260C36002618361C3610362FDF7A4
:102AF000F9FC002801D0FFF7BDFE00222859110083
:102B00001823FEF7B5F82859582300228021FEF734
:102B1000AFF82859C02300228121FEF7A9F88823A5
:102B200028595B0000220121FEF7A2F880232859D2
:102B30005B0000228221FEF79BF8002070BDC0469A
:102B4000740E0020005C0040A6239B00C05810B506
:102B5000FDF734FD0223032801D8024B1B5C18004B
:102B600010BDC0460D2E000810B514001A00230039
:102B7000A624A4000059FDF746FD0223032801D82E
:102B8000014B1B5C180010BD0D2E0008A6239B00F6
:102B9000C05810B5FDF76BFD0223032801D8024B86
:102BA0001B5C180010BDC0460D2E0008A6239B001C
:102BB000C05810B5FDF7F6FF0223032801D8024BD9
:102BC0001B5C180010BDC0460D2E0008A6239B00FC
:102BD000C05810B5FEF71BF80223032801D8024B9A
:102BE0001B5C180010BDC0460D2E0008A6234AB27B
:102BF0009B00C358002A06DA7F22114049015B1866
:102C00002A331878704749015B182B33FF33F8E7F4
:102C1000A6239B00C05810B5FDF7E3FC0223032850
:102C200001D8024B1B5C180010BDC0460D2E0008D9
:102C300010B5A624A4000059FDF765FD0223032862
:102C400001D8024B1B5C180010BDC0460D2E0008B9
:102C500010B5A624A4000059FDF733FD0223032874
:102C600001D8024B1B5C180010BDC0460D2E000899
:102C7000A62310B59B00C058FDF73EFD10BD000017
:102C800000487047E401002070470000122301480B
:102C90000B807047AC010020042301480B80704773
:102CA000C001002010B5044C0A0004482100FFF7C1
:102CB0000EFD200010BDC046E81000202A2E00089E
:102CC00010B5044C0A0004482100FFF700FD200065
:102CD00010BDC046E81000203D2E000810B5044C81
:102CE0000A0004482100FFF7F2FC200010BDC04696
:102CF000E8100020532E000810B5044C0A000448C8
:102D00002100FFF7E4FC200010BDC046E8100020C1
:102D1000112E000810B5044C0A0004482100FFF7EA
:102D2000D6FC200010BDC046E81000201C2E000874
:102D30000D488546002103E00C4B5B58435004319D
:102D40000B480C4B42189A42F6D30B4A02E0002380
:102D500013600432094B9A42F9D3FFF7ABFD00F040
:102D600011F8FFF755FDFEE700200020682E00084F
:102D700000000020C4010020C4010020E81200204F
:102D8000FEE7000070B500260C4D0D4C641BA4102E
:102D9000A64209D1002600F021F80A4D0A4C641B16
:102DA000A410A64205D170BDB300EB589847013678
:102DB000EEE7B300EB5898470136F2E7602E0008C3
:102DC000602E0008602E0008642E000803008218A0
:102DD000934200D1704719700133F9E7F8B5C04646
:102DE000F8BC08BC9E467047F8B5C046F8BC08BCA5
:042DF0009E46704744
:102DF40000000000000000000102030406070809A7
:102E0400030406080C101820300002010243444356
:102E140020436F6E6669670043444320496E7465BE
:102E240072666163650053544D6963726F656C65C6
:102E34006374726F6E6963730053544D333220565A
:102E440069727475616C20436F6D506F72740030D9
:0C2E540030303030303030303031410050
:042E6000E90000087D
:042E6400C1000008A1
:102E6800831E00083D1E00087D1D000800000000AC
:102E7800951C0008291D0008F51C0008000000002A
:102E88000000000000000000D11C0008C51C00085C
:102E9800DD1C0008E91C000809024300020100C00B
:102EA8003209040000010202010005240010010596
:102EB80024010001042402020524060001070582FA
:102EC8000308001009040100020A000000070501B8
:102ED800024000000705810240000000090243008B
:102EE800020100C0320904000001020201000524A9
:102EF8000010010524010001042402020524060033
:102F0800010705820308001009040100020A0000F5
:102F18000007050102000200070581020002000007
:102F28000A060002000000400100000009074300F3
:102F3800020104C032090400000102020100052454
:102F480000100105240100010424020205240600E2
:102F5800010705820308001009040100020A0000A5
:102F6800000705010240000007058102400000003B
:102F78000000200051290008492900084D290008AF
:102F8800A52900084578616D706C65205061636BF8
:102F98006574205374727563747572653A0D0A4EC0
:102FA800616D652C4C617469747564652C4C6F6E29
:102FB8006769747564652C48656172742D726174F3
:102FC800652C5350494F320D0A4C756361732C348C
:102FD800302E3235373437352C2D38362E353437B8
:102FE8003736382C3131302C3937250D0A0D0A0087
:102FF8008D2C0008992C0008A52C0008C12C00086D
:10300800DD2C0008F92C0008152D0008120100021B
:10301800020200408304405700020102030100003D
:043028000403090490
:0400000508002D3191
:00000001FF
